:100000000C9473000C949B000C949B000C949B002C
:100010000C949B000C949B000C949B000C949B00F4
:100020000C949B000C94ED060C949B000C949B008C
:100030000C949B000C949B000C949B000C949B00D4
:100040000C949F070C949B000C9482080C949B00CA
:100050000C949B000C949B000C949B000C949B00B4
:100060000C949B000C949B0005A84CCDB2D44EB9C7
:100070003836A9020C50B9918688083CA6AAAA2A4B
:10008000BE000000803F00000000240027002A007E
:1000900000000000250028002B00000000002300C5
:1000A00026002900040404040404040402020202D9
:1000B000020203030303030301020408102040802B
:1000C00001020408102001020408102000000007AB
:1000D0000002010000030406000000000000000010
:1000E000180148077E0911241FBECFEFD8E0DEBFFC
:1000F000CDBF11E0A0E0B1E0E6EEFAE102C005906C
:100100000D92AC31B107D9F714E0ACE1B1E001C018
:100110001D92AF36B107E1F710E0C6EED0E004C0A3
:100120002297FE010E946D0DC03ED107C9F70E94C3
:100130007B080C94710D0C940000582FA0E0B0E0E7
:1001400015C0C9018A0F9B1FE091CC03F091CD032C
:10015000E80FF91F508361834283285E3F4F203CA4
:10016000310579F71396A831B10519F020E030E098
:10017000E8CFF8942091CA033091CB038091CC034F
:100180009091CD039093CB038093CA033093CD031A
:100190002093CC0378940895CF93DF93EC014091A2
:1001A000CC035091CD0320E030E025C08C91982FF6
:1001B000907F90838295807F818311968C91119797
:1001C000982F907F92838295807F838312968C9163
:1001D00012971396982F907F94838295807F8583C2
:1001E00036967F5F743011F7485E5F4F245F3F4F54
:1001F0002036310531F0DE01A20FB31FFA0170E0A5
:10020000D5CF662391F0F8942091CA033091CB03A7
:100210008091CC039091CD039093CB038093CA033C
:100220003093CD032093CC037894DF91CF91089540
:10023000109243021092440210924502089582E106
:100240000E94570740910301509104014F5F5F4F97
:1002500050930401409303012091000130E060912C
:100260008201281739074CF5662309F04BC08091AD
:10027000010190910201841795070CF043C08CE5B1
:1002800094E00E946B0981E0809382011092040146
:1002900010920301F8942091CA033091CB0380910E
:1002A000CC039091CD039093CB038093CA033093FA
:1002B000CD032093CC0378940895662319F110920E
:1002C0008201809143028823E9F0815080934302A8
:1002D00090914402882329F410924402109245021E
:1002E00008C0892F8F5F80934402823011F41092EE
:1002F000440280E6989FC00111248D579E4F60E014
:100300000E94CC0008951F93DF93CF9300D00F92EB
:10031000CDB7DEB71FEF1AB917B914B91BB818B8A3
:1003200015B8429A8AE492E061E00E9489064298F8
:100330008AE492E061E00E948906429A8AE492E0AF
:1003400061E00E9489061092CE038091B100856021
:100350008093B1008091B1008D7F8093B100809136
:10036000B0008C7F8093B0008091B6008062809353
:10037000B600809170008160809370001093B2008D
:10038000789410921D018CE594E040E05BE460E01D
:1003900070E00E94B3088CE594E00E945F0982E15E
:1003A00060E00E947907DE011196E6E0F1E083E06B
:1003B00001900D928150E1F78AE492E0BE016F5FF7
:1003C0007F4F0E948A0680E094EFA1E0B0E0809326
:1003D000460290934702A0934802B093490281E0FD
:1003E00080931C010F900F900F90CF91DF911F9180
:1003F0000895CF92DF92EF92FF920F931F93DF93B6
:10040000CF9300D0CDB7DEB77C0109C08CE594E076
:100410000E943B098A3A910511F406E316C08CE567
:1004200094E00E9410091816190684F320E030E0C9
:100430006CC061E070E080E090E00E94E70700237C
:1004400019F42EEF3FEF61C001508CE594E00E945B
:100450001009029774F38CE594E00E943B09F701C0
:1004600081936F018CE594E00E943B09982FF7017E
:10047000818380818150853018F02DEF3FEF45C09A
:10048000933618F02CEF3FEF40C016E30CC061E04C
:1004900070E080E090E00E94E707112319F42BEF51
:1004A0003FEF33C01150F6010081202F30E03A8336
:1004B00029838CE594E00E941009E981FA81E8170C
:1004C000F9072CF712E000E00AC08CE594E00E94E6
:1004D0003B09F701E10FF11D80831F5F080F912F8A
:1004E0009250F6018081981780F38CE594E00E9489
:1004F0003B09F70191812081920F900F981719F015
:100500002AEF3FEF02C0212F30E0C9010F900F907A
:10051000CF91DF911F910F91FF90EF90DF90CF90DF
:1005200008958EE191E00E94F901009709F486C0D8
:10053000181619060CF075C080911E018330E9F081
:10054000843020F4823009F06CC007C0843009F494
:100550004BC0853009F065C058C080911C018230C5
:1005600009F05FC080911F01803609F04AC080E227
:1005700091E061E00E94CC005EC080911F01803656
:1005800009F03FC080914302823010F58F5F809365
:10059000430280914502282F30E08F5F809345020F
:1005A000823011F410924502A0E2B1E080E690E0C2
:1005B000289FF001299FF00D389FF00D1124ED5771
:1005C000FE4F8D91819381E0A038B807D1F730C0FC
:1005D00081E080931D0180911C01833011F5809191
:1005E00043028230F1F4089590912001892F8150C7
:1005F000843038F490931C019330E9F41092820116
:100600001AC081E080931D010CC080911C018430D0
:1006100041F48091200160912101409122010E94CA
:100620009D008CE594E060911D010E946B09089586
:1006300010921D01D0CF10921D01F3CF08952F927B
:100640003F924F925F926F927F928F929F92AF9262
:10065000BF92CF92DF92EF92FF920F931F933B01D5
:100660004C0119012A01C801B701A40193010E949C
:10067000EF097B018C01C601B501A20191010E9425
:10068000EF095B016C01C801B701A80197010E9445
:10069000F80B7B018C01C601B501A60195010E94F2
:1006A000F80B9B01AC01C801B7010E94F0090E9440
:1006B000650C1F910F91FF90EF90DF90CF90BF904E
:1006C000AF909F908F907F906F905F904F903F90F2
:1006D0002F9008952F923F924F925F926F927F9248
:1006E0008F929F92AF92BF92CF92DF92EF92FF9242
:1006F0000F931F93DF93CF93CDB7DEB762970FB6FB
:10070000F894DEBF0FBECDBF898B9A8B8B01DB01C6
:10071000FC9011966C9170E0882777FD8095982F5A
:100720000E94F30A20E030E040E85BE30E94F80B0F
:100730006D837E838F839887F801628170E08827BC
:1007400077FD8095982F0E94F30A20E030E040E882
:100750005BE30E94F80B69877A878B879C876D81A2
:100760007E818F81988520E030E040E050E00E945B
:10077000540A882329F489859A85AB85BC85F6C0FF
:100780006F2D70E0882777FD8095982F0E94F30ADF
:1007900020E030E040E85BE30E94F80B20E030E02E
:1007A00040EC50E40E94F80B7B018C010E942E0B60
:1007B0000E94C00A6D877E878F87988B4D845E84E8
:1007C000B201882777FD8095982F0E94F30A9B013C
:1007D000AC01C801B7010E94EF097B018C0160E008
:1007E00070E080E89FE32D813E814F8158850E9413
:1007F000EF099B01AC0169857A858B859C850E94F8
:10080000F80B5B016C016D817E818F819885A80159
:1008100097010E94F80B9B01AC0160E070E080E85A
:100820009FE30E94EF099B01AC0169857A858B8566
:100830009C850E94F80B3B014C0160E070E080E871
:100840009FE3A80197010E94EF099B01AC016D8114
:100850007E818F8198850E94F80B9B01AC0160E03E
:1008600070E080E89FE30E94EF099B01AC0169857D
:100870007A858B859C850E94F80B7B018C0192E028
:1008800049165104C9F1A3E04A1651044CF441142D
:100890005104F9F0F1E04F16510409F063C00EC0A5
:1008A00084E048165104F1F194E0491651048CF1AA
:1008B000A5E04A16510409F055C045C0C301D40152
:1008C00089839A83AB83BC8329843A844B845C8478
:1008D0000CC089859A85AB85BC8589839A83AB8357
:1008E000BC83C701D8011C012D019501A601C901D6
:1008F000DA017C018D0142C0C501D60189839A834A
:10090000AB83BC8329843A844B845C849701A8011F
:10091000EECFC501D60189839A83AB83BC83930153
:10092000A40108C0C701D80189839A83AB83BC8323
:100930009501A601C901DA011C012D01E984FA849F
:100940000B851C851BC089859A85AB85BC858983F1
:100950009A83AB83BC83C501D6011C012D01930191
:10096000A401C5CF80E090E0A0E0B0E089839A8345
:10097000AB83BC831C012D017C018D0169817A81CF
:100980008B819C8120E030E04FE753E40E94F80B1C
:100990000E94C00AA989BA896C93C201B10120E002
:1009A00030E04FE753E40E94F80B0E94C00AE98947
:1009B000FA896183C801B70120E030E04FE753E4D2
:1009C0000E94F80B0E94C00AA989BA8912966C93FA
:1009D00062960FB6F894DEBF0FBECDBFCF91DF9108
:1009E0001F910F91FF90EF90DF90CF90BF90AF904D
:1009F0009F908F907F906F905F904F903F902F903F
:100A000008952F923F924F925F926F927F928F92B2
:100A10009F92AF92BF92CF92DF92EF92FF920F938D
:100A20001F93DF93CF93CDB7DEB7A2970FB6F8949D
:100A3000DEBF0FBECDBF18861F8219861A861B86A1
:100A40001C8609C12F85622F70E080E090E00E9433
:100A5000F10A1B012C0160914602709147028091BE
:100A600048029091490229853A854B855C85620F41
:100A7000731F841F951F0E94F30AA20191010F2E7C
:100A8000F0E0EF2EF0E0FF2EF0E00F2FF3E41F2F49
:100A9000F02D570168010E941F0320E030E040E084
:100AA0005EE30E94F80B0E945B0C6B8F7C8F8D8F36
:100AB0009E8F6F8D78A189A19AA10E94F10A3B01B6
:100AC0004C01A20191010F2EF0E0EF2EF0E0FF2E7D
:100AD000F0E80F2FF2E41F2FF02D570168010E945C
:100AE0001F0320E030E040E05EE30E94F80B0E942C
:100AF0005B0C6F8B788F898F9A8F60914602709113
:100B00004702809148029091490227E030E040E09E
:100B100050E00E94500D8F859889A989BA89280FC5
:100B2000391F4A1F5B1FCA01B9010E94F30A9B01CA
:100B3000AC01C401B3010F2EF0E0EF2EF0E0FF2E68
:100B4000F0E40F2FF3E41F2FF02D0E941F0320E08D
:100B500030E040EE50E40E94580A0E945B0C6B8B20
:100B60007C8B8D8B9E8BC401B301A20191010F2E52
:100B7000F0E0AF2EF0E0BF2EF8ECCF2EF2E4DF2E47
:100B8000F02D0E941F0320E030E040E05EE30E9471
:100B9000F80B0E945B0C7B018C016B8D7C8D8D8D25
:100BA0009E8D2F89388D498D5A8D0E94F0092B8991
:100BB0003C894D895E890E94F009A80197010E9435
:100BC000F00920E030E040E053E40E94F80B0E947E
:100BD000C50A6C839FEF9D839E83CE010196BE0163
:100BE0006C5F7F4F0E946A039A812B81E091CC0356
:100BF000F091CD03AD85BE85EA0FFB1F898180830F
:100C0000918322832F85388949895A892F5F3F4FE5
:100C10004F4F5F4F2F87388B498B5A8B5896BE8723
:100C2000AD87283031054105510509F00BCF4F81C3
:100C300058854D5F5F4F58874F8389859A85AB856F
:100C4000BC850196A11DB11D89879A87AB87BC879A
:100C50004831510591F0AF81B885BE87AD871F86B9
:100C6000188A198A1A8A3985232F30E040E050E02B
:100C70002F8F38A349A35AA3E5CE809146029091C5
:100C80004702A0914802B09149020196A11DB11DF1
:100C90008093460290934702A0934802B093490282
:100CA000F8942091CA033091CB038091CC039091AA
:100CB000CD039093CB038093CA033093CD0320934D
:100CC000CC037894A2960FB6F894DEBF0FBECDBFCA
:100CD000CF91DF911F910F91FF90EF90DF90CF9018
:100CE000BF90AF909F908F907F906F905F904F904C
:100CF0003F902F9008950E94910280911C018130B5
:100D000019F40E9401050895833011F40E941F0117
:100D1000089508954198409840E017C08281880F57
:100D2000880F90E087FF02C05F9A01C05F985E98CD
:100D30005E9A9F5F963011F0880FF4CF2150319763
:100D4000222361F74F5F483019F0FB0123E0E6CF23
:100D5000409A0895FC01409A4198EC57FE4F8081DB
:100D600028E1829FC001112434970190F081E02D89
:100D7000E80FF91F20E0928180E097FF02C05F9AA0
:100D800001C05F985E985E9A8F5F883011F0990F6E
:100D9000F4CF918180E097FF02C05F9A01C05F9815
:100DA0005E985E9A8F5F883011F0990FF4CF908132
:100DB00080E097FF02C05F9A01C05F985E985E9ADC
:100DC0008F5F883011F0990FF4CF2F5F283011F02A
:100DD0003396D1CF419A419808951F920F920FB642
:100DE0000F9211242F933F934F935F936F937F93B1
:100DF0008F939F93AF93BF93EF93FF938DE3809374
:100E0000B2001BB815B88AE492E00E94AA0690913D
:100E1000CE039330B9F0943028F4913071F09230D1
:100E200078F409C0953091F0953070F0963081F0EB
:100E3000973099F40FC081E001C082E085B90FC0FE
:100E400084E0FCCF88E0FACF80E1F8CF80E2F6CFF3
:100E500088E001C080E18BB902C01BB815B8892FAA
:100E60008F5F8093CE03883010F01092CE03FF91F5
:100E7000EF91BF91AF919F918F917F916F915F9112
:100E80004F913F912F910F900FBE0F901F9018958B
:100E90001092CE038AE492E09093CD038093CC032A
:100EA0008AE093E09093CB038093CA030895982F30
:100EB0008E3008F09E509770809105018295880FC2
:100EC000880F807C892B80937C0080917A008064DD
:100ED00080937A0080917A0086FDFCCF2091780083
:100EE00040917900942F80E030E0282B392BC90104
:100EF0000895482F50E0CA0188549F4FFC01249167
:100F00004C555F4FFA0184918823C1F0E82FF0E03F
:100F1000EE0FFF1FEA57FF4FA591B491662341F4EE
:100F20009FB7F8948C91209582238C939FBF08954E
:100F30009FB7F8948C91822B8C939FBF08951F923A
:100F40000F920FB60F9211242F933F938F939F937D
:100F5000AF93BF938091D3039091D403A091D50315
:100F6000B091D6033091D7030196A11DB11D232F57
:100F70002D5F2D3720F02D570196A11DB11D209317
:100F8000D7038093D3039093D403A093D503B09356
:100F9000D6038091CF039091D003A091D103B0915B
:100FA000D2030196A11DB11D8093CF039093D0036E
:100FB000A093D103B093D203BF91AF919F918F9132
:100FC0003F912F910F900FBE0F901F9018959B018E
:100FD000AC017FB7F8948091CF039091D003A0919A
:100FE000D103B091D20366B5A89B05C06F3F19F03D
:100FF0000196A11DB11D7FBFBA2FA92F982F882759
:10100000860F911DA11DB11D62E0880F991FAA1FB7
:10101000BB1F6A95D1F7BC012DC0FFB7F894809132
:10102000CF039091D003A091D103B091D203E6B544
:10103000A89B05C0EF3F19F00196A11DB11DFFBF90
:10104000BA2FA92F982F88278E0F911DA11DB11D92
:10105000E2E0880F991FAA1FBB1FEA95D1F7861BF4
:10106000970B885E9340C8F221503040404050407A
:1010700068517C4F211531054105510571F60895E0
:10108000789484B5826084BD84B5816084BD85B563
:10109000826085BD85B5816085BDEEE6F0E080812A
:1010A00081608083E1E8F0E010828081826080834B
:1010B000808181608083E0E8F0E0808181608083CE
:1010C000E1EBF0E0808184608083E0EBF0E0808100
:1010D00081608083EAE7F0E08081846080838081A2
:1010E000826080838081816080838081806880834A
:1010F0001092C10008950E9440080E9483010E943E
:101100007B06FDCF1F920F920FB60F9211242F93E3
:101110003F934F938F939F93EF93FF934091C6001C
:10112000E0915804F091590431969F012F77307067
:10113000319780915A0490915B042817390739F050
:10114000E852FC4F40833093590420935804FF9198
:10115000EF919F918F914F913F912F910F900FBEE3
:101160000F901F901895CF93DF93EC019A01AB017C
:10117000E885F985203081EE380780E0480780E077
:10118000580709F449C081E090E00A8802C0880F3E
:10119000991F0A94E2F7808360E079E08DE390E0A4
:1011A0000E94500D2150304040405040CA01B901CA
:1011B00022E030E040E050E00E94500DEC81FD81E3
:1011C0003083EE81FF812083EA85FB85208141E029
:1011D00050E0CA010E8402C0880F991F0A94E2F7FA
:1011E000282B2083EA85FB852081CA010F8402C059
:1011F000880F991F0A94E2F7282B2083EA85FB8544
:101200008081088802C0440F551F0A94E2F7842B9E
:101210008083DF91CF910895108220E130E0CECF1E
:10122000DC011296ED91FC911397E058FF4F21914C
:10123000319180819181281B390B2F773070C90142
:101240000895DC011296ED91FC911397EE57FF4F34
:101250002081318192918291E058F040821793076A
:1012600019F42FEF3FEF05C0E20FF31F8081282F05
:1012700030E0C9010895DC011296ED91FC911397BD
:10128000DF01AE57BF4F2D913C911197E058FF4FB2
:1012900080819181E058F0408217930719F42FEF75
:1012A0003FEF0BC0E20FF31F80812F5F3F4F2F777F
:1012B00030702D933C93282F30E0C9010895DC0154
:1012C0001296ED91FC911397EE57FF4F808191811B
:1012D000929382930895FC01A085B18521898C9118
:1012E00090E0022E02C0959587950A94E2F780FF60
:1012F000F6CF0484F585E02D608308958DE091E0BC
:1013000090935D0480935C0488ED93E090935F0478
:1013100080935E0485EC90E0909361048093600478
:1013200084EC90E0909363048093620480EC90E0FE
:10133000909365048093640481EC90E0909367043B
:101340008093660486EC90E090936904809368042F
:1013500084E080936A0483E080936B0487E0809349
:101360006C0485E080936D0481E080936E040895A1
:101370000F931F93CF93DF938C01EB0109C021964C
:10138000D801ED91FC910190F081E02DC801099503
:1013900068816623A1F7DF91CF911F910F91089586
:1013A000EF92FF920F931F93CF93DF938C017B01FA
:1013B000EA010CC0D7016D917D01D801ED91FC913E
:1013C0000190F081E02DC80109952197209791F7B0
:1013D000DF91CF911F910F91FF90EF90089550589A
:1013E000BB27AA270ED0B3C1A4D130F0A9D120F0D9
:1013F00031F49F3F11F41EF499C10EF4E095E7FB20
:1014000064C1E92FB5D180F3BA1762077307840767
:10141000950718F071F49EF5E4C10EF4E0950B2EDB
:10142000BA2FA02D0B01B90190010C01CA01A00136
:101430001124FF27591B99F0593F50F4503E68F191
:101440001A16F040A22F232F342F4427585FF3CFD2
:10145000469537952795A795F0405395C9F77EF4A3
:101460001F16BA0B620B730B840BBAF09150A1F0EC
:10147000FF0FBB1F661F771F881FC2F70EC0BA0F72
:10148000621F731F841F48F4879577956795B795FA
:10149000F7959E3F08F0B3CF9395880F08F09927F2
:1014A000EE0F979587950895ECD008F481E00895A4
:1014B0000CD04DC145D140F03CD130F021F45F3F1C
:1014C00019F003C151118EC131C152D198F3992342
:1014D000C9F35523B1F3951B550BBB27AA276217F8
:1014E0007307840738F09F5F5F4F220F331F441F3D
:1014F000AA1FA9F333D00E2E3AF0E0E830D0915075
:101500005040E695001CCAF729D0FE2F27D0660F61
:10151000771F881FBB1F261737074807AB07B0E8A0
:1015200009F0BB0B802DBF01FF2793585F4F2AF0B6
:101530009E3F510568F0C9C055C15F3FECF3983E2E
:10154000DCF3869577956795B795F7959F5FC9F713
:10155000880F911D9695879597F90895E1E0660F9C
:10156000771F881FBB1F621773078407BA0720F015
:10157000621B730B840BBA0BEE1F88F7E09508957E
:1015800004D06894B1112EC10895FAD088F09F5705
:1015900090F0B92F9927B751A0F0D1F0660F771FBF
:1015A000881F991F1AF0BA95C9F712C0B13081F09F
:1015B00018D1B1E0089515C1672F782F8827B85F3B
:1015C00039F0B93FCCF3869577956795B395D9F700
:1015D0003EF490958095709561957F4F8F4F9F4F0A
:1015E0000895E89409C097FB3EF490958095709516
:1015F00061957F4F8F4F9F4F9923A9F0F92F96E95F
:10160000BB279395F695879577956795B795F111D3
:10161000F8CFFAF4BB0F11F460FF1BC06F5F7F4F70
:101620008F4F9F4F16C0882311F096E911C0772382
:1016300021F09EE8872F762F05C0662371F096E88B
:10164000862F70E060E02AF09A95660F771F881F5A
:10165000DAF7880F9695879597F90895ABD080F0C3
:101660009F3740F491110EF0BDC060E070E080E85B
:101670009FEB089526F41B16611D711D811D2BC063
:1016800045C0990F0008550FAA0BE0E8FEEF1616AB
:101690001706E807F907C0F012161306E407F50766
:1016A00098F0621B730B840B950B39F40A2661F0DA
:1016B000232B242B252B21F408950A2609F4A1407D
:1016C000A6958FEF811D811D089597F99F6780E88A
:1016D00070E060E00895882371F4772321F098503A
:1016E000872B762F07C0662311F499270DC09051E0
:1016F000862B70E060E02AF09A95660F771F881FAE
:10170000DAF7880F9695879597F908959F3F49F0E6
:10171000915028F4869577956795B7959F5F8038A7
:101720009F4F880F9695879597F908959FEF80ECC6
:10173000089500240A941616170618060906089537
:1017400000240A9412161306140605060895092E9D
:101750000394000C11F4882352F0BB0F40F4BF2B0C
:1017600011F460FF04C06F5F7F4F8F4F9F4F08954C
:1017700057FD9058440F551F59F05F3F71F0479542
:10178000880F97FB991F61F09F3F79F08795089527
:10179000121613061406551FF2CF4695F1DF08C046
:1017A000161617061806991FF1CF86957105610563
:1017B00008940895E5DFA0F0BEE7B91788F4BB27C9
:1017C0009F3860F41616B11D672F782F8827985F11
:1017D000F7CF869577956795B11D93959639C8F3A0
:1017E0000895E894BB2766277727CB0197F90895DA
:1017F0000BD0ADCF9EDF28F0A3DF18F0952309F0C2
:1018000064CF94CF1124EECFB3DFA0F3959FD1F333
:10181000950F50E0551F629FF001729FBB27F00D9E
:10182000B11D639FAA27F00DB11DAA1F649F6627F3
:10183000B00DA11D661F829F2227B00DA11D621F42
:10184000739FB00DA11D621F839FA00D611D221FFC
:10185000749F3327A00D611D231F849F600D211DE0
:10186000822F762F6A2F11249F5750408AF0E1F083
:1018700088234AF0EE0FFF1FBB1F661F771F881FCC
:1018800091505040A9F79E3F510570F01ECFAACF4E
:101890005F3FECF3983EDCF3869577956795B795B7
:1018A000F795E7959F5FC1F7FE2B880F911D9695E1
:1018B000879597F908959F935AD00F9007FCEE5F94
:1018C00086C011F40EF432CF21CF5ADFD0F3992322
:1018D000D9F3CEF39F57550B87FF41D05695979577
:1018E000B0E020F4660F771F881FBB1F1F930F9374
:1018F00000249001A0018001F001A0E80E0F1F1F3D
:101900000A1E511D601B710B8009B50B48F4600F56
:10191000711F801DB51F0E1B1F0B0A0A510907C03E
:101920002E0F3F1F4A1F0E0F1F1F0A1E511D660F4D
:10193000771F881FBB1FA695F795E795F8F6061742
:10194000170708065B07211D311D411D0F911F91CF
:10195000B901842F9158880F9695879508959150D5
:101960005040660F771F881FD2F70895DFCE08DF3B
:10197000E8F3E894EFEFBB273FE048EC5FE76B3D0F
:1019800073078407950708F1FF279F57B25A6A4DDE
:101990007F40894CF04032F4BE556542704F86431B
:1019A000FF4F0894EE1F915030F0BB0F661F771F5A
:1019B000881FFF1FEBCF9EE7882332F0BB0F661F07
:1019C000771F881F9A95C1F79395E0959FCEEF9367
:1019D000E0FF06C0A2EA2AED3FE049EC5FEB11DD33
:1019E000B6DE0F90039401FC9058E8E6F0E000C0EA
:1019F0009F938F937F936F93FF93EF939B01AC0122
:101A0000F7DEEF91FF9105D02F913F914F915F91BC
:101A1000EFCEDF93CF931F930F93FF92EF92DF925E
:101A20007B018C01689405C0DA2EEF01EDDEFE012A
:101A3000E894A5912591359145915591AEF3EF012B
:101A4000E0DCFE019701A801DA9479F7DF90EF90CE
:101A5000FF900F911F91CF91DF910895A1E21A2E6F
:101A6000AA1BBB1BFD010DC0AA1FBB1FEE1FFF1F42
:101A7000A217B307E407F50720F0A21BB30BE40B92
:101A8000F50B661F771F881F991F1A9469F76095D9
:101A90007095809590959B01AC01BD01CF01089593
:101AA00097FB092E05260ED057FD04D0D7DF0AD0AC
:101AB000001C38F450954095309521953F4F4F4F7D
:101AC0005F4F0895F6F790958095709561957F4FDB
:101AD0008F4F9F4F0895EE0FFF1F0590F491E02D5B
:061AE0000994F894FFCF09
:101AE6001FEE02008001163F3F000000006B09B8A0
:0C1AF60009D00910093B0921095F090013
:00000001FF
