:100000000C9444000C946C000C946C000C946C00E8
:100010000C946C000C946C000C946C000C946C00B0
:100020000C946C000C946C000C946C000C946C00A0
:100030000C946C000C9461050C946C000C946C0096
:100040000C943A080C946C000C9427090C946C00E6
:100050000C946C000C946C000C946C000C946C0070
:100060000C946C000C946C0005A84CCDB2D44EB925
:100070003836A9020C50B9918688083CA6AAAA2A4B
:10008000BE000000803F230A11241FBECFEFD8E03E
:10009000DEBFCDBF11E0A0E0B1E0E0E3FCE102C0D3
:1000A00005900D92A231B107D9F712E0A2E1B1E0BB
:1000B00001C01D92AE3DB107E1F710E0C8E8D0E005
:1000C00004C02297FE010E94120EC638D107C9F75C
:1000D0000E9420090C94160E0C9400000F931F939D
:1000E0008DE392E00E943B05109213010BEC12E0AD
:1000F000C80140E05BE460E070E00E945809C8017C
:100100000E94040A80E094EFA1E0B0E080937801BF
:1001100090937901A0937A01B0937B0181E0809361
:1001200012011F910F910895CF92DF92EF92FF92EB
:100130000F931F93DF93CF9300D0CDB7DEB77C0131
:1001400009C08BEC92E00E94E0098A3A910511F413
:1001500006E316C08BEC92E00E94B509181619064A
:1001600084F320E030E06CC061E070E080E090E07B
:100170000E948208002319F42EEF3FEF61C0015066
:100180008BEC92E00E94B509029774F38BEC92E03D
:100190000E94E009F70181936F018BEC92E00E94CD
:1001A000E009982FF701818380818150853018F014
:1001B0002DEF3FEF45C0933618F02CEF3FEF40C0D6
:1001C00016E30CC061E070E080E090E00E948208DD
:1001D000112319F42BEF3FEF33C01150F6010081CA
:1001E000202F30E03A8329838BEC92E00E94B509FE
:1001F000E981FA81E817F9072CF712E000E00AC05C
:100200008BEC92E00E94E009F701E10FF11D808381
:100210001F5F080F912F9250F6018081981780F38D
:100220008BEC92E00E94E009F70191812081920F0E
:10023000900F981719F02AEF3FEF02C0212F30E0FE
:10024000C9010F900F90CF91DF911F910F91FF90F7
:10025000EF90DF90CF900895BF92CF92DF92EF9210
:10026000FF920F931F93CF93DF936C01BB242CC09D
:100270002881F980022F0295007F3F2D307F8DE38A
:1002800092E0612F4B2D207FE32E0E94E5040A812E
:1002900023961F5FF29490EFF922E02EE29480EF14
:1002A000E8228DE392E0612F4B2D2F2D007F0E94DD
:1002B000E5041F5F1830E1F68CE090E0C80ED91E0F
:1002C000B39498E0B91619F0E60110E0D1CFDF91B0
:1002D000CF911F910F91FF90EF90DF90CF90BF9043
:1002E000089584E191E00E949400009761F118164E
:1002F00019061CF580911401823019F08430E9F45C
:100300000EC0809112018230C1F4809115018036B7
:1003100089F486E191E061E00E942C0108C090918F
:100320001601892F8150843028F490931201109285
:10033000130103C081E0809313018BEC92E0609184
:1003400013010E94100A08952F923F924F925F92DC
:100350006F927F928F929F92AF92BF92CF92DF92D5
:10036000EF92FF920F931F933B014C0119012A0159
:10037000C801B701A40193010E94940A7B018C017A
:10038000C601B501A20191010E94940A5B016C01B2
:10039000C801B701A80197010E949D0C7B018C0147
:1003A000C601B501A60195010E949D0C9B01AC01FF
:1003B000C801B7010E94950A0E940A0D1F910F9172
:1003C000FF90EF90DF90CF90BF90AF909F908F9075
:1003D0007F906F905F904F903F902F9008952F9255
:1003E0003F924F925F926F927F928F929F92AF92C5
:1003F000BF92CF92DF92EF92FF920F931F93DF9302
:10040000CF93CDB7DEB762970FB6F894DEBF0FBEBD
:10041000CDBF898B9A8B8B01DB01FC9011966C917F
:1004200070E0882777FD8095982F0E94980B20E038
:1004300030E040E85BE30E949D0C6D837E838F83F8
:100440009887F801628170E0882777FD8095982F62
:100450000E94980B20E030E040E85BE30E949D0C96
:1004600069877A878B879C876D817E818F8198854C
:1004700020E030E040E050E00E94F90A882329F4AF
:1004800089859A85AB85BC85F6C06F2D70E088277D
:1004900077FD8095982F0E94980B20E030E040E88F
:1004A0005BE30E949D0C20E030E040EC50E40E94B1
:1004B0009D0C7B018C010E94D30B0E94650B6D8704
:1004C0007E878F87988B4D845E84B201882777FD65
:1004D0008095982F0E94980B9B01AC01C801B70131
:1004E0000E94940A7B018C0160E070E080E89FE349
:1004F0002D813E814F8158850E94940A9B01AC0159
:1005000069857A858B859C850E949D0C5B016C01B9
:100510006D817E818F819885A80197010E949D0C35
:100520009B01AC0160E070E080E89FE30E94940AC8
:100530009B01AC0169857A858B859C850E949D0C09
:100540003B014C0160E070E080E89FE3A801970167
:100550000E94940A9B01AC016D817E818F819885F8
:100560000E949D0C9B01AC0160E070E080E89FE37D
:100570000E94940A9B01AC0169857A858B859C85D4
:100580000E949D0C7B018C0192E049165104C9F137
:10059000A3E04A1651044CF441145104F9F0F1E07F
:1005A0004F16510409F063C00EC084E04816510490
:1005B000F1F194E0491651048CF1A5E04A1651047A
:1005C00009F055C045C0C301D40189839A83AB8328
:1005D000BC8329843A844B845C840CC089859A85C9
:1005E000AB85BC8589839A83AB83BC83C701D80163
:1005F0001C012D019501A601C901DA017C018D01C3
:1006000042C0C501D60189839A83AB83BC83298408
:100610003A844B845C849701A801EECFC501D601D2
:1006200089839A83AB83BC839301A40108C0C7016B
:10063000D80189839A83AB83BC839501A601C90144
:10064000DA011C012D01E984FA840B851C851BC08D
:1006500089859A85AB85BC8589839A83AB83BC8366
:10066000C501D6011C012D019301A401C5CF80E075
:1006700090E0A0E0B0E089839A83AB83BC831C0147
:100680002D017C018D0169817A818B819C8120E023
:1006900030E04FE753E40E949D0C0E94650BA9894E
:1006A000BA896C93C201B10120E030E04FE753E416
:1006B0000E949D0C0E94650BE989FA896183C8013B
:1006C000B70120E030E04FE753E40E949D0C0E9408
:1006D000650BA989BA8912966C9362960FB6F89445
:1006E000DEBF0FBECDBFCF91DF911F910F91FF9065
:1006F000EF90DF90CF90BF90AF909F908F907F90C2
:100700006F905F904F903F902F9008952F923F925F
:100710004F925F926F927F928F929F92AF92BF9211
:10072000CF92DF92EF92FF920F931F93DF93CF93BD
:10073000CDB7DEB76F970FB6F894DEBF0FBECDBF53
:100740001F82188619861A86FCC02B85622F70E0DE
:1007500080E090E00E94960B1B012C0160917801D3
:100760007091790180917A0190917B012F81388578
:1007700049855A85620F731F841F951F0E94980B2D
:10078000A20191010F2EF0E0EF2EF0E0FF2EF0E03D
:100790000F2FF3E41F2FF02D570168010E94A401D1
:1007A00020E030E040E05EE30E949D0C0E94000DDE
:1007B000688F798F8A8F9B8F6C8D7D8D8E8D9F8DAD
:1007C0000E94960B3B014C01A20191010F2EF0E01B
:1007D000EF2EF0E0FF2EF0E80F2FF2E41F2FF02DA8
:1007E000570168010E94A40120E030E040E05EE390
:1007F0000E949D0C0E94000D6C8B7D8B8E8B9F8BBD
:10080000609178017091790180917A0190917B01DA
:1008100027E030E040E050E00E94F50D8B859C859C
:10082000AD85BE85280F391F4A1F5B1FCA01B9015C
:100830000E94980B9B01AC01C401B3010F2EF0E0A4
:10084000EF2EF0E0FF2EF0E40F2FF3E41F2FF02D3A
:100850000E94A40120E030E040EE50E40E94FD0A36
:100860000E94000D688B798B8A8B9B8BC401B3012E
:10087000A20191010F2EF0E0AF2EF0E0BF2EF8ECB8
:10088000CF2EF2E4DF2EF02D0E94A40120E030E014
:1008900040E05EE30E949D0C0E94000D7B018C01F4
:1008A000688D798D8A8D9B8D2C893D894E895F89D4
:1008B0000E94950A288939894A895B890E94950A8C
:1008C000A80197010E94950A20E030E040E053E43F
:1008D0000E949D0C0E946A0B6C839FEF9D839E83F8
:1008E000CE010196BE016C5F7F4F0E94EF018DE348
:1008F00092E06F854B8529810A81EB800E94E50497
:100900002B853C854D855E852F5F3F4F4F4F5F4F59
:100910002B873C874D875E8728303105410551057F
:1009200009F013CF8F819885A985BA850196A11DFD
:10093000B11D8F839887A987BA870897A105B1054C
:1009400079F09F819F871B861C861D861E86292F16
:1009500030E040E050E02C8F3D8F4E8F5F8FF5CE22
:100960008091780190917901A0917A01B0917B01F9
:100970000196A11DB11D8093780190937901A093F8
:100980007A01B0937B016F960FB6F894DEBF0FBE6D
:10099000CDBFCF91DF911F910F91FF90EF90DF902E
:1009A000CF90BF90AF909F908F907F906F905F900F
:1009B0004F903F902F9008950E94710180911201F5
:1009C000813011F40E9486030895EF920F9370E036
:1009D00050E0ACE7B1E0F3E0660F771FFA95E1F77E
:1009E000FB01E40FF51FEA0FFB1FE082A60FB71F04
:1009F000A40FB51FA05CBF4F0C93A05CBF4F2C93FE
:100A00000F91EF90089528988AE090E00E94DB080B
:100A10005F9890E021E085B1822785B99F5F98308B
:100A2000D1F70895AC0120E032E0289885B1832702
:100A300085B92F5F2031C9F7289820E032E085B1D1
:100A4000832785B92F5F203CD1F720E032E028983A
:100A500085B1832785B92F5F2031C9F7289820E019
:100A600032E085B1832785B92F5F203CD1F7CA01D9
:100A70000E94030508952AB1206F2AB92BB12F7067
:100A80002BB9529A209A219A28982998259A0E943F
:100A9000120510928000E1E8F0E080E1808380E1BF
:100AA00097E2909387008093860081E080936F00A7
:100AB00010928500109284008081816080837894F8
:100AC00008951F920F920FB60F9211241F932F9328
:100AD0003F934F935F936F937F938F939F93AF93C6
:100AE000BF93EF93FF938DE392E00E941205109164
:100AF0003C02177090E022E0289885B1822785B9E2
:100B00009F5F9031C9F7A12FB0E0FD0163E0EE0FC8
:100B1000FF1F6A95E1F7E458FE4F8781282F30E0E8
:100B200090E042E037FF02C0289A01C0289885B1C2
:100B3000842785B99F5F903119F0220F331FF2CFC0
:100B4000FD0183E0EE0FFF1F8A95E1F7E458FE4FA9
:100B50008681282F30E090E042E037FF02C0289ADB
:100B600001C0289885B1842785B99F5F903119F01D
:100B7000220F331FF2CFFD0163E0EE0FFF1F6A95D6
:100B8000E1F7E458FE4F8581282F30E090E042E005
:100B900037FF02C0289A01C0289885B1842785B9FB
:100BA0009F5F903119F0220F331FF2CFFD0183E0D8
:100BB000EE0FFF1F8A95E1F7E058FE4F8081282F46
:100BC00030E090E042E037FF02C0289A01C0289848
:100BD00085B1842785B99F5F903119F0220F331FAB
:100BE000F2CFFD0163E0EE0FFF1F6A95E1F7E458D5
:100BF000FE4F8381282F30E090E042E037FF02C0B3
:100C0000289A01C0289885B1842785B99F5F9031C3
:100C100019F0220F331FF2CFFD0183E0EE0FFF1F0B
:100C20008A95E1F7E258FE4F8081282F30E090E06E
:100C300042E037FF02C0289A01C0289885B1842776
:100C400085B99F5F903119F0220F331FF2CFFD015C
:100C500063E0EE0FFF1F6A95E1F7E458FE4F8181D4
:100C6000282F30E090E042E037FF02C0289A01C010
:100C7000289885B1842785B99F5F903119F0220F9C
:100C8000331FF2CFFD0183E0EE0FFF1F8A95E1F7DE
:100C9000E458FE4F8081282F30E090E042E037FF9B
:100CA00002C0289A01C0289885B1842785B99F5F22
:100CB000903119F0220F331FF2CFFD0163E0EE0FE8
:100CC000FF1F6A95E1F7ED53FE4F8081282F30E03A
:100CD00090E042E037FF02C0289A01C0289885B111
:100CE000842785B99F5F903119F0220F331FF2CF0F
:100CF000FD0183E0EE0FFF1F8A95E1F7EE53FE4FF3
:100D00008081282F30E090E042E037FF02C0289A2F
:100D100001C0289885B1842785B99F5F903119F06B
:100D2000220F331FF2CFFD0163E0EE0FFF1F6A9524
:100D3000E1F7EF53FE4F8081282F30E090E042E052
:100D400037FF02C0289A01C0289885B1842785B949
:100D50009F5F903119F0220F331FF2CFFD0183E026
:100D6000EE0FFF1F8A95E1F7E054FE4F8081282F98
:100D700030E090E042E037FF02C0289A01C0289896
:100D800085B1842785B99F5F903119F0220F331FF9
:100D9000F2CF90E022E0289885B1822785B99F5F45
:100DA0009031C9F7FD0163E0EE0FFF1F6A95E1F78F
:100DB000E154FE4F8081282F30E090E042E037FF81
:100DC00002C0289A01C0289885B1842785B99F5F01
:100DD000903119F0220F331FF2CFFD0183E0EE0FA7
:100DE000FF1F8A95E1F7E254FE4F8081282F30E003
:100DF00090E042E037FF02C0289A01C0289885B1F0
:100E0000842785B99F5F903119F0220F331FF2CFED
:100E1000FD0163E0EE0FFF1F6A95E1F7E354FE4F1B
:100E20008081282F30E090E042E037FF02C0289A0E
:100E300001C0289885B1842785B99F5F903119F04A
:100E4000220F331FF2CFFD0183E0EE0FFF1F8A95C3
:100E5000E1F7E454FE4F8081282F30E090E042E03B
:100E600037FF02C0289A01C0289885B1842785B928
:100E70009F5F903119F0220F331FF2CFFD0163E025
:100E8000EE0FFF1F6A95E1F7ED5FFD4F8081282F80
:100E900030E090E042E037FF02C0289A01C0289875
:100EA00085B1842785B99F5F903119F0220F331FD8
:100EB000F2CFFD0183E0EE0FFF1F8A95E1F7EE5FB1
:100EC000FD4F8081282F30E090E042E037FF02C0E4
:100ED000289A01C0289885B1842785B99F5F9031F1
:100EE00019F0220F331FF2CFFD0163E0EE0FFF1F59
:100EF0006A95E1F7EF5FFD4F8081282F30E090E0A9
:100F000042E037FF02C0289A01C0289885B18427A3
:100F100085B99F5F903119F0220F331FF2CFFD0189
:100F200083E0EE0FFF1F8A95E1F7E050FE4F8081CE
:100F3000282F30E090E042E037FF02C0289A01C03D
:100F4000289885B1842785B99F5F903119F0220FC9
:100F5000331FF2CFFD0163E0EE0FFF1F6A95E1F74B
:100F6000E150FE4F8081282F30E090E042E037FFD3
:100F700002C0289A01C0289885B1842785B99F5F4F
:100F8000903119F0220F331FF2CFFD0183E0EE0FF5
:100F9000FF1F8A95E1F7E250FE4F8081282F30E055
:100FA00090E042E037FF02C0289A01C0289885B13E
:100FB000842785B99F5F903119F0220F331FF2CF3C
:100FC000FD0163E0EE0FFF1F6A95E1F7E350FE4F6E
:100FD0008081282F30E090E042E037FF02C0289A5D
:100FE00001C0289885B1842785B99F5F903119F099
:100FF000220F331FF2CF93E0AA0FBB1F9A95E1F7A0
:10100000A450BE4F8C91E82FF0E090E022E0F7FF73
:1010100002C0289A01C0289885B1822785B99F5FB0
:10102000903119F0EE0FFF1FF2CF8DE392E00E9496
:1010300003058BB18F708BB98BB11295107F182B74
:101040001BB95F9A80913C028F5F80933C025A9853
:10105000FF91EF91BF91AF919F918F917F916F9190
:101060005F914F913F912F911F910F900FBE0F9065
:101070001F9018951F920F920FB60F9211242F9365
:101080003F938F939F93AF93BF9380914202909130
:101090004302A0914402B09145023091460201966C
:1010A000A11DB11D232F2D5F2D3720F02D57019647
:1010B000A11DB11D209346028093420290934302EA
:1010C000A0934402B093450280913E0290913F026A
:1010D000A0914002B09141020196A11DB11D8093E3
:1010E0003E0290933F02A0934002B0934102BF9111
:1010F000AF919F918F913F912F910F900FBE0F90C5
:101100001F9018959B01AC017FB7F89480913E0227
:1011100090913F02A0914002B091410266B5A89B18
:1011200005C06F3F19F00196A11DB11D7FBFBA2FF9
:10113000A92F982F8827860F911DA11DB11D62E050
:10114000880F991FAA1FBB1F6A95D1F7BC012DC03C
:10115000FFB7F89480913E0290913F02A091400227
:10116000B0914102E6B5A89B05C0EF3F19F001968A
:10117000A11DB11DFFBFBA2FA92F982F88278E0F51
:10118000911DA11DB11DE2E0880F991FAA1FBB1F71
:10119000EA95D1F7861B970B885E9340C8F22150E1
:1011A00030404040504068517C4F21153105410589
:1011B000510571F60895019739F0880F991F880F2E
:1011C000991F02970197F1F70895789484B582608A
:1011D00084BD84B5816084BD85B5826085BD85B5DB
:1011E000816085BDEEE6F0E0808181608083E1E88A
:1011F000F0E01082808182608083808181608083C2
:10120000E0E8F0E0808181608083E1EBF0E08081C4
:1012100084608083E0EBF0E0808181608083EAE796
:10122000F0E080818460808380818260808380811F
:10123000816080838081806880831092C1000895DE
:101240000E94E5080E946E000E94DC04FDCF1F9200
:101250000F920FB60F9211242F933F934F938F93BA
:101260009F93EF93FF934091C600E091C702F091E6
:10127000C80231969F012F77307031978091C90253
:101280009091CA022817390739F0E95BFD4F408376
:101290003093C8022093C702FF91EF919F918F91E5
:1012A0004F913F912F910F900FBE0F901F90189567
:1012B000CF93DF93EC019A01AB01E885F9852030EB
:1012C00081EE380780E0480780E0580709F449C0FC
:1012D00081E090E00A8802C0880F991F0A94E2F723
:1012E000808360E079E08DE390E00E94F50D21506D
:1012F000304040405040CA01B90122E030E040E0B7
:1013000050E00E94F50DEC81FD813083EE81FF817C
:101310002083EA85FB85208141E050E0CA010E84EC
:1013200002C0880F991F0A94E2F7282B2083EA85D0
:10133000FB852081CA010F8402C0880F991F0A947F
:10134000E2F7282B2083EA85FB858081088802C08C
:10135000440F551F0A94E2F7842B8083DF91CF91CD
:101360000895108220E130E0CECFDC011296ED919D
:10137000FC911397E058FF4F219131918081918129
:10138000281B390B2F773070C9010895DC011296A4
:10139000ED91FC911397EE57FF4F2081318192918F
:1013A0008291E058F0408217930719F42FEF3FEF36
:1013B00005C0E20FF31F8081282F30E0C901089596
:1013C000DC011296ED91FC911397DF01AE57BF4FF0
:1013D0002D913C911197E058FF4F80819181E05809
:1013E000F0408217930719F42FEF3FEF0BC0E20F85
:1013F000F31F80812F5F3F4F2F7730702D933C93E9
:10140000282F30E0C9010895DC011296ED91FC917E
:101410001397EE57FF4F80819181929382930895A5
:10142000FC01A085B18521898C9190E0022E02C03B
:10143000959587950A94E2F780FFF6CF0484F585A9
:10144000E02D6083089584E091E09093CC02809336
:10145000CB0287E492E09093CE028093CD0285EC9C
:1014600090E09093D0028093CF0284EC90E0909330
:10147000D2028093D10280EC90E09093D4028093CA
:10148000D30281EC90E09093D6028093D50286EC53
:1014900090E09093D8028093D70284E08093D902A1
:1014A00083E08093DA0287E08093DB0285E080931B
:1014B000DC0281E08093DD0208950F931F93CF93A8
:1014C000DF938C01EB0109C02196D801ED91FC91CD
:1014D0000190F081E02DC801099568816623A1F78C
:1014E000DF91CF911F910F910895EF92FF920F938B
:1014F0001F93CF93DF938C017B01EA010CC0D701CE
:101500006D917D01D801ED91FC910190F081E02D6C
:10151000C80109952197209791F7DF91CF911F91ED
:101520000F91FF90EF9008955058BB27AA270ED037
:10153000B3C1A4D130F0A9D120F031F49F3F11F410
:101540001EF499C10EF4E095E7FB64C1E92FB5D113
:1015500080F3BA17620773078407950718F071F4D0
:101560009EF5E4C10EF4E0950B2EBA2FA02D0B01D1
:10157000B90190010C01CA01A0011124FF27591BD8
:1015800099F0593F50F4503E68F11A16F040A22FDE
:10159000232F342F4427585FF3CF4695379527954F
:1015A000A795F0405395C9F77EF41F16BA0B620B4E
:1015B000730B840BBAF09150A1F0FF0FBB1F661F95
:1015C000771F881FC2F70EC0BA0F621F731F841FD8
:1015D00048F4879577956795B795F7959E3F08F0FE
:1015E000B3CF9395880F08F09927EE0F97958795BD
:1015F0000895ECD008F481E008950CD04DC145D198
:1016000040F03CD130F021F45F3F19F003C151119B
:101610008EC131C152D198F39923C9F35523B1F347
:10162000951B550BBB27AA2762177307840738F051
:101630009F5F5F4F220F331F441FAA1FA9F333D0B0
:101640000E2E3AF0E0E830D091505040E695001C64
:10165000CAF729D0FE2F27D0660F771F881FBB1F20
:10166000261737074807AB07B0E809F0BB0B802DFA
:10167000BF01FF2793585F4F2AF09E3F510568F046
:10168000C9C055C15F3FECF3983EDCF38695779572
:101690006795B795F7959F5FC9F7880F911D969548
:1016A000879597F90895E1E0660F771F881FBB1FA4
:1016B000621773078407BA0720F0621B730B840B51
:1016C000BA0BEE1F88F7E095089504D06894B11125
:1016D0002EC10895FAD088F09F5790F0B92F99271E
:1016E000B751A0F0D1F0660F771F881F991F1AF02D
:1016F000BA95C9F712C0B13081F018D1B1E00895A0
:1017000015C1672F782F8827B85F39F0B93FCCF320
:10171000869577956795B395D9F73EF49095809522
:10172000709561957F4F8F4F9F4F0895E89409C042
:1017300097FB3EF490958095709561957F4F8F4F04
:101740009F4F9923A9F0F92F96E9BB279395F6951A
:10175000879577956795B795F111F8CFFAF4BB0F98
:1017600011F460FF1BC06F5F7F4F8F4F9F4F16C0FC
:10177000882311F096E911C0772321F09EE8872F86
:10178000762F05C0662371F096E8862F70E060E042
:101790002AF09A95660F771F881FDAF7880F9695BB
:1017A000879597F90895ABD080F09F3740F4911159
:1017B0000EF0BDC060E070E080E89FEB089526F475
:1017C0001B16611D711D811D2BC045C0990F00089E
:1017D000550FAA0BE0E8FEEF16161706E807F90703
:1017E000C0F012161306E407F50798F0621B730B9E
:1017F000840B950B39F40A2661F0232B242B252B1F
:1018000021F408950A2609F4A140A6958FEF811DC1
:10181000811D089597F99F6780E870E060E0089562
:10182000882371F4772321F09850872B762F07C0F7
:10183000662311F499270DC09051862B70E060E06B
:101840002AF09A95660F771F881FDAF7880F96950A
:10185000879597F908959F3F49F0915028F4869510
:1018600077956795B7959F5F80389F4F880F9695BE
:10187000879597F908959FEF80EC089500240A94C6
:101880001616170618060906089500240A9412165B
:101890001306140605060895092E0394000C11F48E
:1018A000882352F0BB0F40F4BF2B11F460FF04C03B
:1018B0006F5F7F4F8F4F9F4F089557FD9058440F94
:1018C000551F59F05F3F71F04795880F97FB991F9F
:1018D00061F09F3F79F0879508951216130614065C
:1018E000551FF2CF4695F1DF08C0161617061806E9
:1018F000991FF1CF86957105610508940895E5DF7C
:10190000A0F0BEE7B91788F4BB279F3860F416161D
:10191000B11D672F782F8827985FF7CF8695779529
:101920006795B11D93959639C8F30895E894BB2740
:1019300066277727CB0197F908950BD0ADCF9EDFAF
:1019400028F0A3DF18F0952309F064CF94CF112479
:10195000EECFB3DFA0F3959FD1F3950F50E0551F65
:10196000629FF001729FBB27F00DB11D639FAA27F4
:10197000F00DB11DAA1F649F6627B00DA11D661F43
:10198000829F2227B00DA11D621F739FB00DA11D64
:10199000621F839FA00D611D221F749F3327A00D1E
:1019A000611D231F849F600D211D822F762F6A2FBA
:1019B00011249F5750408AF0E1F088234AF0EE0F3F
:1019C000FF1FBB1F661F771F881F91505040A9F74C
:1019D0009E3F510570F01ECFAACF5F3FECF3983EBB
:1019E000DCF3869577956795B795F795E7959F5FB3
:1019F000C1F7FE2B880F911D9695879597F908954D
:101A00009F935AD00F9007FCEE5F86C011F40EF43E
:101A100032CF21CF5ADFD0F39923D9F3CEF39F579A
:101A2000550B87FF41D056959795B0E020F4660F8F
:101A3000771F881FBB1F1F930F9300249001A001E5
:101A40008001F001A0E80E0F1F1F0A1E511D601B30
:101A5000710B8009B50B48F4600F711F801DB51F15
:101A60000E1B1F0B0A0A510907C02E0F3F1F4A1FEA
:101A70000E0F1F1F0A1E511D660F771F881FBB1FE9
:101A8000A695F795E795F8F60617170708065B077A
:101A9000211D311D411D0F911F91B901842F9158B6
:101AA000880F96958795089591505040660F771F3F
:101AB000881FD2F70895DFCE08DFE8F3E894EFEF50
:101AC000BB273FE048EC5FE76B3D73078407950752
:101AD00008F1FF279F57B25A6A4D7F40894CF0406A
:101AE00032F4BE556542704F8643FF4F0894EE1F97
:101AF000915030F0BB0F661F771F881FFF1FEBCF81
:101B00009EE7882332F0BB0F661F771F881F9A95C8
:101B1000C1F79395E0959FCEEF93E0FF06C0A2EA50
:101B20002AED3FE049EC5FEB11DDB6DE0F90039448
:101B300001FC9058E8E6F0E000C09F938F937F93FC
:101B40006F93FF93EF939B01AC01F7DEEF91FF9151
:101B500005D02F913F914F915F91EFCEDF93CF93BF
:101B60001F930F93FF92EF92DF927B018C01689499
:101B700005C0DA2EEF01EDDEFE01E894A591259176
:101B8000359145915591AEF3EF01E0DCFE019701EF
:101B9000A801DA9479F7DF90EF90FF900F911F91F1
:101BA000CF91DF910895A1E21A2EAA1BBB1BFD0164
:101BB0000DC0AA1FBB1FEE1FFF1FA217B307E4072C
:101BC000F50720F0A21BB30BE40BF50B661F771F84
:101BD000881F991F1A9469F7609570958095909564
:101BE0009B01AC01BD01CF01089597FB092E05268D
:101BF0000ED057FD04D0D7DF0AD0001C38F4509522
:101C00004095309521953F4F4F4F5F4F0895F6F720
:101C100090958095709561957F4F8F4F9F4F089558
:101C2000EE0FFF1F0590F491E02D0994F894FFCF7B
:101C300000000000100A5D0A750AB509E009C6092E
:021C4000040A94
:00000001FF
